{
  "_format": "hh-sol-artifact-1",
  "contractName": "gasChallenge",
  "sourceName": "contracts/gasChallenge.sol",
  "abi": [
    {
      "inputs": [],
      "name": "getSumOfArray",
      "outputs": [
        {
          "internalType": "uint256",
          "name": "",
          "type": "uint256"
        }
      ],
      "stateMutability": "view",
      "type": "function"
    },
    {
      "inputs": [],
      "name": "notOptimizedFunction",
      "outputs": [],
      "stateMutability": "nonpayable",
      "type": "function"
    },
    {
      "inputs": [],
      "name": "optimizedFunction",
      "outputs": [],
      "stateMutability": "nonpayable",
      "type": "function"
    }
  ],
  "bytecode": "0x6080604052604051806101400160405280600160ff168152602001600260ff168152602001600360ff168152602001600460ff168152602001600560ff168152602001600660ff168152602001600760ff168152602001600860ff168152602001600960ff168152602001600a60ff16815250600090600a610082929190610095565b5034801561008f57600080fd5b506100f7565b82600a81019282156100c9579160200282015b828111156100c8578251829060ff169055916020019190600101906100a8565b5b5090506100d691906100da565b5090565b5b808211156100f35760008160009055506001016100db565b5090565b610294806101066000396000f3fe608060405234801561001057600080fd5b50600436106100415760003560e01c806368b5f223146100465780637ce418941461005057806380d2c8031461005a575b600080fd5b61004e610078565b005b6100586100b4565b005b6100626100fe565b60405161006f9190610169565b60405180910390f35b60005b600a8110156100b15760008082600a811061009957610098610184565b5b018190555080806100a9906101e2565b91505061007b565b50565b60005b600a8110156100fb5760008082600a81106100d5576100d4610184565b5b018190555080806100e5906101e2565b91505080806100f3906101e2565b9150506100b7565b50565b600080600a90506000805b8281101561014757600081600a811061012557610124610184565b5b015482610132919061022a565b9150808061013f906101e2565b915050610109565b50809250505090565b6000819050919050565b61016381610150565b82525050565b600060208201905061017e600083018461015a565b92915050565b7f4e487b7100000000000000000000000000000000000000000000000000000000600052603260045260246000fd5b7f4e487b7100000000000000000000000000000000000000000000000000000000600052601160045260246000fd5b60006101ed82610150565b91507fffffffffffffffffffffffffffffffffffffffffffffffffffffffffffffffff820361021f5761021e6101b3565b5b600182019050919050565b600061023582610150565b915061024083610150565b9250828201905080821115610258576102576101b3565b5b9291505056fea2646970667358221220598cbbd974e52a372386f367525a875db867d699feaebeaeee59ada5854621d864736f6c63430008120033",
  "linkReferences": {},
  "deployedLinkReferences": {}
}